:1000000000308A00302B0000FF00030E8301A100A6
:100010000A08A0008A010408A2007708A300780853
:10002000A4007908A5007A08A6007B08A70083131E
:1000300083120B1E1D288B1836288C308400001C60
:1000400023280C183928220884002308F7002408E4
:10005000F8002508F9002608FA002708FB00200808
:100060008A00210E8300FF0E7F0E09008A110A12FA
:10007000A7288A110A12D9280A108A100A118207A1
:10008000C234023480340234533402341B34023418
:10009000D13401346E340134DF3400340A108A1054
:1000A0000A118207F934013405340A341034193442
:1000B00028340A108A100A118207493449344D3411
:1000C000543457342C34253464342C3443340034C1
:1000D0000A108A100A1182074934493456344834C8
:1000E000573425346C3475342E3425346C347534DF
:1000F0002C344E342C342C3400340A108A100A115B
:100100008207413445345434583454342C34303418
:1001100031342C34303431342C34303431342C34C8
:10012000203441344434433431343D342534303484
:1001300034346C34753420344134443443343234F0
:100140003D342534303434346C34753400340F0885
:10015000FA000E08F7000F087A02031DA728770897
:100160008316B6007A08B700023036028312EB001D
:10017000831637088312EC000030031C0130EC02B8
:100180008F018E016819D428E81CD32868106E30BE
:100190008400840A6C08800084036B0880006D086A
:1001A000F000E815D428E814ED018B108A110A122A
:1001B00023286D083F3C0318E1286814E810E8156F
:1001C000E228ED0A0C108A110A122328A0308400BC
:1001D00000080319FA280530F800F701F70BEE289C
:1001E000F80BED282E30F700F70BF4280000000084
:1001F000800BEB2800341030F700FA018316AE01B3
:10020000AB0CAA0C031C0A292C08FA070318AE0A27
:100210002D08AE07AE0CFA0CF90CF80CF70B002900
:1002200083128A110A12F02B8316310833068039A3
:10023000B500B11F2029B009B109B00A0319B10AEC
:10024000B31F2729B209B309B20A0319B30AF80187
:10025000F901F701FA013308031D312932080319A6
:100260004B291030B4000310B00DB10DF70DFA0D8D
:1002700033087A02031D3E2932087702031C4729FE
:100280003208F702031CFA033308FA020314F80DCC
:10029000F90DB40B33290000B51F5329F809F909EA
:1002A000F80A0319F90A83128A110A122C2C72080F
:1002B000840083162E088000840A8001F20A8312CB
:1002C000003483162408F801230203186A2923083E
:1002D000F7007629F7010830A500A30DF70D2408D3
:1002E00077020318F700F80DA50B6D29831200346F
:1002F00083162108F700A11B8129221D8E29203099
:100300008629F709F70A7708A1002D30F800AE001A
:100310008312572110308316A21DA2002108A300CA
:100320006430A4008312612177088316A100780845
:100330003030031DA2292218AA29A219AA29221A9B
:100340002030A429A2112212F8077808AE008312E7
:10035000572183162108A3000A30A40083126121CB
:1003600077088316A10078083030031DBB29A21935
:10037000C129221A2030F8077808AE0083125721CD
:1003800083163030A1072108AE00831257218A114D
:100390000A124D2C8316A101A001283020078400E9
:1003A00080080319DA292830200784000008A106F4
:1003B000A00ACD292108F800831200340713083061
:1003C000F800000000000000F817F729F813831662
:1003D000A30C831203180717031C07137817F729B8
:1003E0007813F80BE7290000000000000717013020
:1003F000F7008401840BFA29F70BF9290D308400EA
:10040000840B002A00000000F81BE629781BF02965
:1004100000348316A21B1E2A0F30F700210EF705A9
:100420000A3077020318172A3030F707192A2208F2
:10043000F7077708A3008312DE2183160F30A1058A
:100440000A3021020318262A3030282AA213220853
:10045000A1072108A3008312DE218A110A12542A5F
:1004600024308316A3008312DE212830840000305C
:1004700000040319482A04088316A0000008A300FA
:100480008312DE21831620088400840A8312372A0F
:100490002A308316A3008312DE2164088316A1008C
:1004A0005730A2008312092A0D308316A30083124D
:1004B000DE210A308316A3008312DE210034F70107
:1004C000F801F901FA018316AD01AE01AF01B001E7
:1004D0002C082B042A04290403199E2A2030B10079
:1004E0000310A50DA60DA70DA80DAD0DAE0DAF0DFA
:1004F000B00D2C083002031D872A2B082F02031D84
:10050000872A2A082E02031D872A29082D02031C88
:10051000982A2908AD022A08031C2A0FAE022B08CC
:10052000031C2B0FAF022C08031C2C0FB00203146A
:10053000F70DF80DF90DFA0DB10B702A0000AD3072
:10054000840083128A110A128F2CF801F901F70135
:10055000FA0183162508031DB02A24080319CA2AA4
:100560001030A6000310A20DA30DF70DFA0D2508FB
:100570007A02031DBD2A24087702031CC62A240818
:10058000F702031CFA032508FA020314F80DF90D0B
:10059000A60BB22A00008312003404088316AD00B3
:1005A000270EF038A900A907E23EAA00323EAC00AF
:1005B00027080F39AA07AA07AC07E93EAB00AB072B
:1005C000AB07260E0F39AB07AC07AB0DAC0DAC0972
:1005D000AC0D26080F39AC07A90D0730A8000A306A
:1005E000AC07AB03031CF02AAB07AA03031CF42AD5
:1005F000AA07A903031CF82AA907A803031CFC2ABD
:10060000A830840007302D058407AC30040203199C
:10061000272B0008F700031D132B2D1A252BAD19CE
:10062000152B2030162B0830AD003030F707A7010E
:100630000408A6007708A8007708AE0083125721A7
:100640008316260884002808F700840A052B000872
:10065000F7003030F7077708AE00831257210034D7
:1006600084011F308305063083169F0007308312F4
:100670009F000717F201FF3083168500DF308600E8
:10068000B33087000117A530831290008F018E01CF
:100690008C3083169F0083121F083839C1389F00A1
:1006A0000030F8001F08C73978049F000D30F700AC
:1006B000F70B582B83160C1483120B16C0308B04C7
:1006C000EC01EB01ED016814E8106811E815F10187
:1006D00086120030F8001F08C73978049F00643084
:1006E0008316A0008312E6201F151F19752B831691
:1006F0001E088312E6001E08E700E708031D872B8B
:100700006608DF3C031C872B2830E500332C670884
:10071000013C0318952BFF3A031D922B6608C13C40
:100720000318952BF930E500332C0130F30003104A
:10073000730D8316A000200A83123C20FA00831652
:10074000200883123C20F80067087A02031CB02BB3
:10075000031DAE2B780866020318B02BF30A972B03
:1007600001307302F7000310F70D77088316A1001C
:10077000210A83123C20FA008316210883123C20B0
:100780008316A2007A08A300831266088316220249
:10079000A4002308A50083126708031C670FD12B50
:1007A000D42B8316A502831273084E208316A6004D
:1007B0000130730283124E20F80083162602FA01DC
:1007C000F700F71BFA03A8007A08A9002508AB0078
:1007D0002408AA002908AD002808AC008312FB28D1
:1007E00079088316A6007808A50001307302F70087
:1007F0000310F70D7708AA002A0A83123C20FA009A
:1008000083162A0883123C208316AB007A08AC00BA
:100810000310730DAD002D0A83123C20FA008316DD
:100820002D0883123C2083162B02F7007A08031C44
:100830007A0F1C2C2C081D2C2C02FA007708AE0015
:100840007A08AF002608B1002508B0002F08B300D1
:100850002E08B200831214297808E50001307302D3
:100860004E20F800E5072830F2008316A00120088A
:10087000831259208316A00AF700AE008312572175
:10088000063083162002031D372C83126508831659
:10089000A1001830A200831278292C308316AE00F4
:1008A0008312572143308316AE0083125721CA2189
:1008B0007808E400861630228612FA308316A000EB
:1008C0008312E620E81D9C2C68156818982C6E3061
:1008D00084000008F700840A0008F800840A000871
:1008E000F900840A0008FA008316A3007908A20020
:1008F0007808A1007708A0000408A400A8011A3015
:10090000A7004E30A600EA30A5002308AC0022085C
:10091000AB002108AA002008A90083125F2A8316D1
:100920002408840078088312EA007708E9009A2CEA
:10093000EA01E901E81168116A088316A30083122D
:1009400069088316A200A5010A30A4008312A5221B
:1009500079088316A1007808A00083126A0883161C
:10096000A300831269088316A200A5010A30A4001F
:100970008312A52277088316A2007A08A3002830E4
:10098000F200A4012408831268208316A40AF70049
:10099000AE0083125721053083162402031DC22C9A
:1009A0000530A5002C30AE00831257218316A50B0D
:1009B000D22C103084002108A7002008A600831242
:1009C000CD222E308316AE008312572110308400C2
:1009D00083162308A7002208A6008312CD220C301C
:1009E0008316A6002608831268208316A60AF7003D
:1009F000AE0083125721103083162602031DF22CFD
:100A00008312CA217808E40030220830F8001F0859
:100A1000C73978049F0064308316A0008312E62053
:100A20001F151F19112D83161E088312E9001E08B9
:100A3000EA002030F8001F08C73978049F006430AE
:100A40008316A0008312E6201F151F19252D83167B
:100A50001E088312E6001E08E7002830F200831605
:100A6000A001200883127D208316A00AF700AE00A3
:100A700083125721153083162002031D312D0930B2
:100A8000840083126A088316A700831269088316FC
:100A9000A6008312CD221A308316A10021088312EA
:100AA0007D208316A10AF700AE0083125721203063
:100AB00083162102031D4E2D09308400831267081E
:100AC0008316A700831266088316A6008312CD2220
:100AD000CA217808E4003022FA308316A00083127D
:060AE000E620692B630013
:02400E003A3F37
:00000001FF
;PIC16F876A
