:1000000000308A0040280000831A0A28A500030E49
:10001000A6000F288312A500030EA600A6140A0846
:10002000AD008A018313A50E0408A7002008A800CC
:100030002108A9002208AA002308AB002408AC006C
:1000400083120B1E25288B18B0288C308400001CCE
:100050002B280C18DD28270884002808A000290870
:10006000A1002A08A2002B08A3002C08A4002D0838
:100070008A00260E83008312250EA6188316090017
:10008000FF238316900000308A00672A0A108A1026
:100090000A1182072434493449344D3454345734D6
:1000A0002C3400340A108A100A1182072C3443348D
:1000B0000D340A3400340A108A100A1182072434DD
:1000C000493449345634483457342C342C342C3485
:1000D0002C342C3400340A108A100A1182072C3474
:1000E0004E342C342C340D340A3400340A108A1067
:1000F0000A118207AB3402348034023453340234A0
:100100001B340234D13401346E340134DF34003412
:100110000A108A100A118207F934013405340A34AE
:100120001034193428340A108A100A118207003456
:1001300000342B3400342D340034383400344A3445
:100140000034633400348F3400340A108A100A11EA
:1001500082070034083404340534063409340F347B
:100160000F08A3000E08A0000F082302031DB028EB
:100170002008CE002308CF0002304E02B4004F0802
:10018000B5000030031C0130B5028F018E0131191A
:10019000D928B11CD828311037308400840A35089A
:1001A00080008403340880003608B900B115D928CE
:1001B000B114B6018B108A112B2836083F3C031866
:1001C000E5283114B110B115E628B60A0C108A11D1
:1001D0002B281030A000A301C801C50CC40C031CBF
:1001E000F7284608A3070318C80A4708C807C80C19
:1001F000A30CA20CA10CA00BED280A2B4708490662
:100200008039CB00C71F0929C609C709C60A0319C7
:10021000C70AC91F1029C809C909C80A0319C90A88
:10022000A101A201A001A3014908031D1A29480840
:10023000031934291030CA000310C60DC70DA00DD4
:10024000A30D49082302031D272948082002031C87
:1002500030294808A002031CA3034908A302031481
:10026000A10DA20DCA0B1C290000CB1F3C29A1091E
:10027000A209A10A0319A20A222BA001A101A2012D
:10028000A301C901CA01CB01CC01480847044604B7
:10029000450403197B292030CD000310C10DC20D88
:1002A000C30DC40DC90DCA0DCB0DCC0D48084C02B1
:1002B000031D642947084B02031D642946084A02AE
:1002C000031D642945084902031C75294508C90214
:1002D0004608031C460FCA024708031C470FCB02FF
:1002E0004808031C480FCC020314A00DA10DA20D59
:1002F000A30DCD0B4D29000049308400622B05125F
:100300000830A100000000000000A1179629A113E9
:10031000C00C03180516031C05122117962921137A
:10032000A10B882900000000000005163E30840063
:10033000840B982900000000A11B8729211B8F290D
:1003400000344108A10140020318A9294008A00077
:10035000B529A0010830C200C00DA00D410820023F
:100360000318A000A10DC20BAC2900343C08A0006A
:10037000BC1BBE293D1DC9292030C329A009A00AE4
:100380002008BC002D30A100C0007F211030BD1D11
:10039000BD003C08C0006430C100A1212008BC00A1
:1003A00021083030031DDB293D18E129BD19E12961
:1003B0003D1A2030DD29BD113D12A1072108C000E2
:1003C0007F213C08C0000A30C100A1212008BC00E8
:1003D00021083030031DF029BD19F4293D1A2030C1
:1003E000A1072108C0007F213030BC073C08C000B5
:1003F0007F217E2B3C308400000803190E2A013037
:10040000A100A001A00B022AA10B012A4A30A000E2
:10041000A00B082A00000000800BFF290034A10176
:10042000A201A001A3014008031D192A3F080319D6
:10043000332A1030C1000310BD0DBE0DA00DA30D59
:1004400040082302031D262A3F082002031C2F2AEE
:100450003F08A002031CA3034008A3020314A10D3C
:10046000A20DC10B1B2A0000003421083E08C00069
:100470006430C100A1212008BE0021083030031DD6
:10048000482A3F184E2ABF194E2A3F1A20304A2ABE
:10049000BF113F12A1072108C0007F213E08C00004
:1004A0000A30C100A1212008BE0021083030031D00
:1004B0005D2ABF19612A3F1A2030A1072108C00018
:1004C0007F213030BE073E08C0007F210034840108
:1004D0001F30830583161F08F0399F0083121F13F6
:1004E00007309F000516CF30650083160117853051
:1004F000831290008F018E0183161F08F039023895
:100500009F0083121F1383161F080F3930389F0076
:1005100083121F08CC3981389F000430A1001F08C6
:10052000C33921049F000330A000A00B952A831635
:100530000C1483120B16C0308B04B501B401B60144
:100540003114B1103111B115BA0185169F149F18DD
:10055000A72A83161E088312AF001E08B000B00839
:10056000031DB92A2F08DF3C031CB92A2830AE002E
:10057000372B3008013C0318C72AFF3A031DC42A51
:100580002F08AA3C0318C72AF930AE00372B0130D8
:10059000BB0003103B0DBC003C0A7620A3003C08C6
:1005A0007620A10030082302031CDE2A031DDC2A6A
:1005B00021082F020318DE2ABB0AC92A01303B0298
:1005C000A0000310A00D2008BD00200A7620A30083
:1005D0003D087620BE002308BF002F083E02C00061
:1005E0002308C1003008031C300FC1023B08A520BE
:1005F000A100A3012108A000A11BA303C20023089E
:10060000C3004108C5004008C4002308C7004208D1
:10061000C600E9282208C2002108C10003103B0DD2
:10062000C300430A9320A30043089320C400230877
:10063000C5004208C7004108C6002308C900440895
:10064000C800FE282208C3002108C20001303B0276
:100650008820A100A3012108A000A11BA303420739
:10066000A1000318A30A4308A3072108AE00B11D87
:100670006D2B31153118692B373084000008A0002C
:10068000840A0008A100840A0008A200840A000865
:10069000A300BF002208BE002108BD002008BC0046
:1006A0000408C000C4011A30C3004E30C200EA3052
:1006B000C1003F08C8002208C7002108C600200862
:1006C000C5003D29400884002108B3002008B2007D
:1006D0006B2BB301B201B11131118516BC013C087D
:1006E0004620BC0AA000C0007F2107303C02031D49
:1006F0006F2B2E08BC001830BD00B629BC013C0889
:100700005220BC0AA000C0007F2104303C02031D1F
:100710007F2B8512FA30BC00FA218516BC013C08FB
:100720005B20BC0AA000C0007F210B303C02031DEF
:100730008F2B3308BE003208BD00C0010A30BF0055
:100740000F222108BC003308BE003208BD00C001E2
:100750000A30BF000F222008BD003C08BE00183040
:10076000BF0035222E30C0007F213D08BE0018306A
:10077000BF003522BC013C086B20BC0AA000C000B1
:100780007F2106303C02031DBB2B8512FA30BC00D2
:06079000FA21A62A630015
:02400E00D439A3
:00000001FF
;PIC12F675
